:1000000061C071C070C06FC06EC06DC06CC06BC08D
:100010006AC069C068C067C066C065C064C063C0AC
:1000200062C061C060C000002373FBDFCEC4030662
:10003000FCFC0603C3663C66C3FFFF603060FFFF45
:100040003F7FC07F3F7FFFC0C0FF7F0303FFFF03F1
:1000500003C4CEDFFB7323FFFF1B3B6ECE7EFFC3CB
:10006000D3FF7E80FFFF1B1B0E0E7EFFC3C3FF7EF0
:10007000FFFF0C1830FFFFFFFF060C06FFFFFFFF1E
:10008000C0C0FFFF3C66C3C0FF7FFFFFFFFF181823
:10009000FFFF7EFFC3DBFB7BFFFF1B1BFFFFDBDBE9
:1000A000FFFF81C37E3C3C7EC381FFFF9999FF66C1
:1000B000FEFF1B1BFFFE07DFDFC0C0187E7E181887
:1000C0001818180011241FBECFEDCDBF10E0A0E618
:1000D000B0E0E6EAF3E002C005900D92A038B10767
:1000E000D9F73CD15EC18CCFBB9ABA9AB99AB89A6B
:1000F0008E9A8D9A8C9A8B9A0895DC019D01281B0B
:10010000390B261737070CF041C09D01FD014491C2
:1001100047FF02C0939A01C09398FD01449146FFA6
:1001200002C0949A01C09498FD01449145FF02C019
:10013000959A01C09598FD01449144FF02C0969A9A
:1001400001C09698FD01449143FF02C0C09A01C0CE
:10015000C098FD01449142FF02C0C19A01C0C198FC
:10016000FD01449141FF02C0C29A01C0C29811969C
:10017000F901249120FF02C0C39A01C0C398EFE5A2
:10018000F9E03197F1F700C00000B8CF0895982F3B
:100190009F7D913429F466E070E080EB90E0D8C058
:1001A000923429F466E070E08AEA90E0D1C093349A
:1001B00029F464E070E086EA90E0CAC0943429F43F
:1001C00066E070E080EA90E0C3C0953429F464E012
:1001D00070E08CE990E0BCC0963429F464E070E0F3
:1001E00088E990E0B5C0973429F466E070E082E9D0
:1001F00090E0AEC0983429F466E070E08CE890E0BE
:10020000A7C0993429F462E070E08AE890E0A0C0C9
:100210009A3429F463E070E087E890E099C09B3459
:1002200029F465E070E082E890E092C09C3429F403
:1002300064E070E08EE790E08BC09D3429F467E0C5
:1002400070E087E790E084C09E3429F467E070E0B6
:1002500080E790E07DC09F3429F466E070E08AE694
:1002600090E076C0903529F466E070E084E690E096
:100270006FC0913529F467E070E08DE590E068C0CB
:10028000923529F466E070E087E590E061C093352F
:1002900029F466E070E081E590E05AC0943529F4D5
:1002A00066E070E08BE490E053C0953529F466E099
:1002B00070E085E490E04CC0963529F465E070E08C
:1002C00080E490E045C0973529F467E070E089E369
:1002D00090E03EC0983529F465E070E084E390E05A
:1002E00037C0993529F466E070E08EE290E030C0C6
:1002F0009A3529F466E070E088E290E029C0803207
:1003000029F462E070E086E290E022C0813229F4B4
:1003100062E070E087EB90E01BC08E3229F462E06F
:1003200070E089EB90E014C08D3229F464E070E055
:100330008FEB90E00DC08B3229F464E070E08BEB22
:1003400090E006C0873229F461E070E086EB90E02F
:10035000D4DE62E070E086E290E0CFCECF93DF9310
:10036000CDB7DD27CF51CDBFBFDE8FE1E0E6F0E0B6
:10037000DE01119601900D928A95E1F77E0180E2EF
:10038000E80EF11C8E010F5F1F4FF80181918F0164
:10039000FEDE0E151F05C9F780E0F9DE80E0F7DE0E
:0603A000F1CFF894FFCF3D
:1003A60053746570206261636B202D2049276D2090
:1003B600646F696E6720536369656E63652100002B
:00000001FF
